{
  "contractName": "DLars",
  "abi": [
    {
      "inputs": [],
      "stateMutability": "nonpayable",
      "type": "constructor"
    },
    {
      "inputs": [
        {
          "internalType": "string",
          "name": "landAddress",
          "type": "string"
        },
        {
          "internalType": "string",
          "name": "city",
          "type": "string"
        },
        {
          "internalType": "string",
          "name": "country",
          "type": "string"
        },
        {
          "internalType": "string",
          "name": "pincode",
          "type": "string"
        }
      ],
      "name": "computeIdLand",
      "outputs": [
        {
          "internalType": "uint256",
          "name": "",
          "type": "uint256"
        }
      ],
      "stateMutability": "pure",
      "type": "function",
      "constant": true
    },
    {
      "inputs": [],
      "name": "getManagerAddress",
      "outputs": [
        {
          "internalType": "address",
          "name": "",
          "type": "address"
        }
      ],
      "stateMutability": "view",
      "type": "function",
      "constant": true
    },
    {
      "inputs": [
        {
          "internalType": "string",
          "name": "landAddress",
          "type": "string"
        },
        {
          "internalType": "string",
          "name": "city",
          "type": "string"
        },
        {
          "internalType": "string",
          "name": "country",
          "type": "string"
        },
        {
          "internalType": "string",
          "name": "pincode",
          "type": "string"
        },
        {
          "internalType": "address payable",
          "name": "currentOwner",
          "type": "address"
        }
      ],
      "name": "registerLand",
      "outputs": [
        {
          "internalType": "uint256",
          "name": "",
          "type": "uint256"
        }
      ],
      "stateMutability": "nonpayable",
      "type": "function"
    },
    {
      "inputs": [
        {
          "internalType": "uint256",
          "name": "landId",
          "type": "uint256"
        }
      ],
      "name": "viewLandDetails",
      "outputs": [
        {
          "internalType": "string",
          "name": "",
          "type": "string"
        },
        {
          "internalType": "string",
          "name": "",
          "type": "string"
        },
        {
          "internalType": "string",
          "name": "",
          "type": "string"
        },
        {
          "internalType": "string",
          "name": "",
          "type": "string"
        },
        {
          "internalType": "enum DLars.LandStatus",
          "name": "",
          "type": "uint8"
        }
      ],
      "stateMutability": "view",
      "type": "function",
      "constant": true
    },
    {
      "inputs": [
        {
          "internalType": "uint256",
          "name": "landId",
          "type": "uint256"
        },
        {
          "internalType": "uint256",
          "name": "askingPrice",
          "type": "uint256"
        },
        {
          "internalType": "uint256",
          "name": "minBidInterval",
          "type": "uint256"
        }
      ],
      "name": "putUpForAuction",
      "outputs": [],
      "stateMutability": "nonpayable",
      "type": "function"
    },
    {
      "inputs": [
        {
          "internalType": "uint256",
          "name": "landId",
          "type": "uint256"
        }
      ],
      "name": "deleteFromAuction",
      "outputs": [],
      "stateMutability": "nonpayable",
      "type": "function"
    },
    {
      "inputs": [
        {
          "internalType": "uint256",
          "name": "landId",
          "type": "uint256"
        },
        {
          "internalType": "uint256",
          "name": "newAskingPrice",
          "type": "uint256"
        },
        {
          "internalType": "uint256",
          "name": "newMinBidInterval",
          "type": "uint256"
        }
      ],
      "name": "updateAuctionDetails",
      "outputs": [],
      "stateMutability": "nonpayable",
      "type": "function"
    },
    {
      "inputs": [
        {
          "internalType": "uint256",
          "name": "landId",
          "type": "uint256"
        }
      ],
      "name": "placeBid",
      "outputs": [],
      "stateMutability": "payable",
      "type": "function",
      "payable": true
    },
    {
      "inputs": [
        {
          "internalType": "uint256",
          "name": "landId",
          "type": "uint256"
        }
      ],
      "name": "viewAuctionDetails",
      "outputs": [
        {
          "internalType": "uint256",
          "name": "",
          "type": "uint256"
        },
        {
          "internalType": "uint256",
          "name": "",
          "type": "uint256"
        },
        {
          "internalType": "uint256",
          "name": "",
          "type": "uint256"
        }
      ],
      "stateMutability": "view",
      "type": "function",
      "constant": true
    },
    {
      "inputs": [
        {
          "internalType": "uint256",
          "name": "landId",
          "type": "uint256"
        }
      ],
      "name": "terminateAuction",
      "outputs": [],
      "stateMutability": "nonpayable",
      "type": "function"
    },
    {
      "inputs": [
        {
          "internalType": "uint256",
          "name": "landId",
          "type": "uint256"
        }
      ],
      "name": "acceptHighestBid",
      "outputs": [],
      "stateMutability": "nonpayable",
      "type": "function"
    }
  ],
  "bytecode": "0x608060405234801561001057600080fd5b5033600160006101000a81548173ffffffffffffffffffffffffffffffffffffffff021916908373ffffffffffffffffffffffffffffffffffffffff160217905550611d4c806100616000396000f3fe60806040526004361061009c5760003560e01c80639979ef45116100645780639979ef45146101b0578063b7698219146101cc578063c162d7da146101f5578063cb2b1f9214610220578063d8b63ca614610249578063e0dc5141146102865761009c565b80630f26b375146100a15780632c69f97c146100de5780633ab660b6146101075780633cb301b6146101465780637e5e962514610187575b600080fd5b3480156100ad57600080fd5b506100c860048036038101906100c3919061169f565b6102af565b6040516100d591906117a3565b60405180910390f35b3480156100ea57600080fd5b50610105600480360381019061010091906117ea565b6104bd565b005b34801561011357600080fd5b5061012e600480360381019061012991906117ea565b610639565b60405161013d93929190611817565b60405180910390f35b34801561015257600080fd5b5061016d600480360381019061016891906117ea565b6106e2565b60405161017e95949392919061194d565b60405180910390f35b34801561019357600080fd5b506101ae60048036038101906101a991906117ea565b6109a4565b005b6101ca60048036038101906101c591906117ea565b610b2a565b005b3480156101d857600080fd5b506101f360048036038101906101ee91906117ea565b610e3b565b005b34801561020157600080fd5b5061020a610f99565b60405161021791906119dd565b60405180910390f35b34801561022c57600080fd5b50610247600480360381019061024291906119f8565b610fc3565b005b34801561025557600080fd5b50610270600480360381019061026b9190611a4b565b6110f0565b60405161027d91906117a3565b60405180910390f35b34801561029257600080fd5b506102ad60048036038101906102a891906119f8565b61113b565b005b6000600160009054906101000a900473ffffffffffffffffffffffffffffffffffffffff1673ffffffffffffffffffffffffffffffffffffffff163373ffffffffffffffffffffffffffffffffffffffff161461030b57600080fd5b6000610319878787876110f0565b905060008082815260200190815260200160002060040160159054906101000a900460ff161561034857600080fd5b866000808381526020019081526020016000206002019080519060200190610371929190611444565b5085600080838152602001908152602001600020600001908051906020019061039b929190611444565b508460008083815260200190815260200160002060010190805190602001906103c5929190611444565b508360008083815260200190815260200160002060030190805190602001906103ef929190611444565b508260008083815260200190815260200160002060040160006101000a81548173ffffffffffffffffffffffffffffffffffffffff021916908373ffffffffffffffffffffffffffffffffffffffff160217905550600160008083815260200190815260200160002060040160146101000a81548160ff0219169083600181111561047d5761047c6118d6565b5b0217905550600160008083815260200190815260200160002060040160156101000a81548160ff0219169083151502179055508091505095945050505050565b8060008082815260200190815260200160002060040160009054906101000a900473ffffffffffffffffffffffffffffffffffffffff1673ffffffffffffffffffffffffffffffffffffffff163373ffffffffffffffffffffffffffffffffffffffff161461052b57600080fd5b6000600181111561053f5761053e6118d6565b5b60008084815260200190815260200160002060040160149054906101000a900460ff166001811115610574576105736118d6565b5b1461057e57600080fd5b6002600083815260200190815260200160002060020154600260008481526020019081526020016000206001015410156105b757600080fd5b6105f7826002600085815260200190815260200160002060000160009054906101000a900473ffffffffffffffffffffffffffffffffffffffff1661130f565b600160008084815260200190815260200160002060040160146101000a81548160ff021916908360018111156106305761062f6118d6565b5b02179055505050565b6000806000806001811115610651576106506118d6565b5b60008086815260200190815260200160002060040160149054906101000a900460ff166001811115610686576106856118d6565b5b1461069057600080fd5b6002600085815260200190815260200160002060010154600260008681526020019081526020016000206002015460026000878152602001908152602001600020600401549250925092509193909250565b60608060608060008060008781526020019081526020016000206000016000808881526020019081526020016000206001016000808981526020019081526020016000206002016000808a81526020019081526020016000206003016000808b815260200190815260200160002060040160149054906101000a900460ff1684805461076d90611b51565b80601f016020809104026020016040519081016040528092919081815260200182805461079990611b51565b80156107e65780601f106107bb576101008083540402835291602001916107e6565b820191906000526020600020905b8154815290600101906020018083116107c957829003601f168201915b505050505094508380546107f990611b51565b80601f016020809104026020016040519081016040528092919081815260200182805461082590611b51565b80156108725780601f1061084757610100808354040283529160200191610872565b820191906000526020600020905b81548152906001019060200180831161085557829003601f168201915b5050505050935082805461088590611b51565b80601f01602080910402602001604051908101604052809291908181526020018280546108b190611b51565b80156108fe5780601f106108d3576101008083540402835291602001916108fe565b820191906000526020600020905b8154815290600101906020018083116108e157829003601f168201915b5050505050925081805461091190611b51565b80601f016020809104026020016040519081016040528092919081815260200182805461093d90611b51565b801561098a5780601f1061095f5761010080835404028352916020019161098a565b820191906000526020600020905b81548152906001019060200180831161096d57829003601f168201915b505050505091509450945094509450945091939590929450565b3373ffffffffffffffffffffffffffffffffffffffff166002600083815260200190815260200160002060000160009054906101000a900473ffffffffffffffffffffffffffffffffffffffff1673ffffffffffffffffffffffffffffffffffffffff1614610a1257600080fd5b4262278d006002600084815260200190815260200160002060040154610a389190611bb2565b10610a4257600080fd5b60006001811115610a5657610a556118d6565b5b60008083815260200190815260200160002060040160149054906101000a900460ff166001811115610a8b57610a8a6118d6565b5b14610a9557600080fd5b3360008083815260200190815260200160002060040160006101000a81548173ffffffffffffffffffffffffffffffffffffffff021916908373ffffffffffffffffffffffffffffffffffffffff160217905550600160008083815260200190815260200160002060040160146101000a81548160ff02191690836001811115610b2257610b216118d6565b5b021790555050565b600034905060008083815260200190815260200160002060040160009054906101000a900473ffffffffffffffffffffffffffffffffffffffff1673ffffffffffffffffffffffffffffffffffffffff163373ffffffffffffffffffffffffffffffffffffffff161415610b9d57600080fd5b8060026000848152602001908152602001600020600301546002600085815260200190815260200160002060010154610bd69190611bb2565b10610be057600080fd5b8060026000848152602001908152602001600020600201541115610c0357600080fd5b60006001811115610c1757610c166118d6565b5b60008084815260200190815260200160002060040160149054906101000a900460ff166001811115610c4c57610c4b6118d6565b5b14610c5657600080fd5b600060026000848152602001908152602001600020600101541115610d09576002600083815260200190815260200160002060000160009054906101000a900473ffffffffffffffffffffffffffffffffffffffff1673ffffffffffffffffffffffffffffffffffffffff166108fc60026000858152602001908152602001600020600101549081150290604051600060405180830381858888f19350505050158015610d07573d6000803e3d6000fd5b505b6000600260008481526020019081526020016000206001015482610d2d9190611c08565b905060008084815260200190815260200160002060040160009054906101000a900473ffffffffffffffffffffffffffffffffffffffff1673ffffffffffffffffffffffffffffffffffffffff166108fc829081150290604051600060405180830381858888f19350505050158015610daa573d6000803e3d6000fd5b50336002600085815260200190815260200160002060000160006101000a81548173ffffffffffffffffffffffffffffffffffffffff021916908373ffffffffffffffffffffffffffffffffffffffff160217905550816002600085815260200190815260200160002060010181905550426002600085815260200190815260200160002060040181905550505050565b8060008082815260200190815260200160002060040160009054906101000a900473ffffffffffffffffffffffffffffffffffffffff1673ffffffffffffffffffffffffffffffffffffffff163373ffffffffffffffffffffffffffffffffffffffff1614610ea957600080fd5b60006001811115610ebd57610ebc6118d6565b5b60008084815260200190815260200160002060040160149054906101000a900460ff166001811115610ef257610ef16118d6565b5b14610efc57600080fd5b6000600260008481526020019081526020016000206001015414610f1f57600080fd5b600160008084815260200190815260200160002060040160146101000a81548160ff02191690836001811115610f5857610f576118d6565b5b021790555060006002600084815260200190815260200160002060020181905550600060026000848152602001908152602001600020600301819055505050565b6000600160009054906101000a900473ffffffffffffffffffffffffffffffffffffffff16905090565b8260008082815260200190815260200160002060040160009054906101000a900473ffffffffffffffffffffffffffffffffffffffff1673ffffffffffffffffffffffffffffffffffffffff163373ffffffffffffffffffffffffffffffffffffffff161461103157600080fd5b60006001811115611045576110446118d6565b5b60008086815260200190815260200160002060040160149054906101000a900460ff16600181111561107a576110796118d6565b5b1461108457600080fd5b60006002600086815260200190815260200160002060010154146110a757600080fd5b600082116110b457600080fd5b82600260008681526020019081526020016000206002018190555081600260008681526020019081526020016000206003018190555050505050565b6000633b9aca008585858560405160200161110e9493929190611c78565b6040516020818303038152906040528051906020012060001c6111319190611ce5565b9050949350505050565b8260008082815260200190815260200160002060040160009054906101000a900473ffffffffffffffffffffffffffffffffffffffff1673ffffffffffffffffffffffffffffffffffffffff163373ffffffffffffffffffffffffffffffffffffffff16146111a957600080fd5b6001808111156111bc576111bb6118d6565b5b60008086815260200190815260200160002060040160149054906101000a900460ff1660018111156111f1576111f06118d6565b5b146111fb57600080fd5b6000821161120857600080fd5b60006002600086815260200190815260200160002060000160006101000a81548173ffffffffffffffffffffffffffffffffffffffff021916908373ffffffffffffffffffffffffffffffffffffffff16021790555060006002600086815260200190815260200160002060010181905550826002600086815260200190815260200160002060020181905550816002600086815260200190815260200160002060030181905550426002600086815260200190815260200160002060040181905550600080600086815260200190815260200160002060040160146101000a81548160ff02191690836001811115611304576113036118d6565b5b021790555050505050565b8160008082815260200190815260200160002060040160009054906101000a900473ffffffffffffffffffffffffffffffffffffffff1673ffffffffffffffffffffffffffffffffffffffff163373ffffffffffffffffffffffffffffffffffffffff161461137d57600080fd5b8173ffffffffffffffffffffffffffffffffffffffff1660008085815260200190815260200160002060040160009054906101000a900473ffffffffffffffffffffffffffffffffffffffff1673ffffffffffffffffffffffffffffffffffffffff1614156113eb57600080fd5b8160008085815260200190815260200160002060040160006101000a81548173ffffffffffffffffffffffffffffffffffffffff021916908373ffffffffffffffffffffffffffffffffffffffff160217905550505050565b82805461145090611b51565b90600052602060002090601f01602090048101928261147257600085556114b9565b82601f1061148b57805160ff19168380011785556114b9565b828001600101855582156114b9579182015b828111156114b857825182559160200191906001019061149d565b5b5090506114c691906114ca565b5090565b5b808211156114e35760008160009055506001016114cb565b5090565b6000604051905090565b600080fd5b600080fd5b600080fd5b600080fd5b6000601f19601f8301169050919050565b7f4e487b7100000000000000000000000000000000000000000000000000000000600052604160045260246000fd5b61154e82611505565b810181811067ffffffffffffffff8211171561156d5761156c611516565b5b80604052505050565b60006115806114e7565b905061158c8282611545565b919050565b600067ffffffffffffffff8211156115ac576115ab611516565b5b6115b582611505565b9050602081019050919050565b82818337600083830152505050565b60006115e46115df84611591565b611576565b905082815260208101848484011115611600576115ff611500565b5b61160b8482856115c2565b509392505050565b600082601f830112611628576116276114fb565b5b81356116388482602086016115d1565b91505092915050565b600073ffffffffffffffffffffffffffffffffffffffff82169050919050565b600061166c82611641565b9050919050565b61167c81611661565b811461168757600080fd5b50565b60008135905061169981611673565b92915050565b600080600080600060a086880312156116bb576116ba6114f1565b5b600086013567ffffffffffffffff8111156116d9576116d86114f6565b5b6116e588828901611613565b955050602086013567ffffffffffffffff811115611706576117056114f6565b5b61171288828901611613565b945050604086013567ffffffffffffffff811115611733576117326114f6565b5b61173f88828901611613565b935050606086013567ffffffffffffffff8111156117605761175f6114f6565b5b61176c88828901611613565b925050608061177d8882890161168a565b9150509295509295909350565b6000819050919050565b61179d8161178a565b82525050565b60006020820190506117b86000830184611794565b92915050565b6117c78161178a565b81146117d257600080fd5b50565b6000813590506117e4816117be565b92915050565b600060208284031215611800576117ff6114f1565b5b600061180e848285016117d5565b91505092915050565b600060608201905061182c6000830186611794565b6118396020830185611794565b6118466040830184611794565b949350505050565b600081519050919050565b600082825260208201905092915050565b60005b8381101561188857808201518184015260208101905061186d565b83811115611897576000848401525b50505050565b60006118a88261184e565b6118b28185611859565b93506118c281856020860161186a565b6118cb81611505565b840191505092915050565b7f4e487b7100000000000000000000000000000000000000000000000000000000600052602160045260246000fd5b60028110611916576119156118d6565b5b50565b600081905061192782611905565b919050565b600061193782611919565b9050919050565b6119478161192c565b82525050565b600060a0820190508181036000830152611967818861189d565b9050818103602083015261197b818761189d565b9050818103604083015261198f818661189d565b905081810360608301526119a3818561189d565b90506119b2608083018461193e565b9695505050505050565b60006119c782611641565b9050919050565b6119d7816119bc565b82525050565b60006020820190506119f260008301846119ce565b92915050565b600080600060608486031215611a1157611a106114f1565b5b6000611a1f868287016117d5565b9350506020611a30868287016117d5565b9250506040611a41868287016117d5565b9150509250925092565b60008060008060808587031215611a6557611a646114f1565b5b600085013567ffffffffffffffff811115611a8357611a826114f6565b5b611a8f87828801611613565b945050602085013567ffffffffffffffff811115611ab057611aaf6114f6565b5b611abc87828801611613565b935050604085013567ffffffffffffffff811115611add57611adc6114f6565b5b611ae987828801611613565b925050606085013567ffffffffffffffff811115611b0a57611b096114f6565b5b611b1687828801611613565b91505092959194509250565b7f4e487b7100000000000000000000000000000000000000000000000000000000600052602260045260246000fd5b60006002820490506001821680611b6957607f821691505b60208210811415611b7d57611b7c611b22565b5b50919050565b7f4e487b7100000000000000000000000000000000000000000000000000000000600052601160045260246000fd5b6000611bbd8261178a565b9150611bc88361178a565b9250827fffffffffffffffffffffffffffffffffffffffffffffffffffffffffffffffff03821115611bfd57611bfc611b83565b5b828201905092915050565b6000611c138261178a565b9150611c1e8361178a565b925082821015611c3157611c30611b83565b5b828203905092915050565b600081905092915050565b6000611c528261184e565b611c5c8185611c3c565b9350611c6c81856020860161186a565b80840191505092915050565b6000611c848287611c47565b9150611c908286611c47565b9150611c9c8285611c47565b9150611ca88284611c47565b915081905095945050505050565b7f4e487b7100000000000000000000000000000000000000000000000000000000600052601260045260246000fd5b6000611cf08261178a565b9150611cfb8361178a565b925082611d0b57611d0a611cb6565b5b82820690509291505056fea264697066735822122080ad384b2534bf133958f0f3127c87aace3613ceaf5e88299c7229999ff2efc864736f6c634300080a0033",
  "immutableReferences": {},
  "source": "pragma solidity 0.8.10;\r\n// SPDX-License-Identifier: UNLICENSED\r\n\r\ncontract DLars{\r\n\r\n    //Structure for all the land Details\r\n    struct landDetails {\r\n        string city;\r\n        string country;\r\n        string landAddress;\r\n        string pincode;\r\n        address payable currentOwner;\r\n        LandStatus status;\r\n        bool isRegistered;                  // isRegistered is true if a land is already present in the mapping otherwise false\r\n    }\r\n\r\n    // enum named \"LandStatus\" denoting the stage of Auction the land is in\r\n    enum LandStatus {underBidding, registered}\r\n\r\n    // mapping storing the land details\r\n    mapping(uint => landDetails) Lands;\r\n\r\n    // address of the manager of contract\r\n    address manager;\r\n\r\n    // modifier ensuring only manager access\r\n    modifier onlyManager{ \r\n        require(msg.sender == manager);\r\n        _;\r\n    }\r\n\r\n    // modifier ensuring only current land owner access\r\n    modifier onlyOwner(uint landId){\r\n        //Ensuring some features can only be accessed by current owner\r\n        require(msg.sender == Lands[landId].currentOwner);\r\n        _;\r\n    }\r\n\r\n    // structure for all the auction details\r\n    struct auction {\r\n        //Auction are identified using their landId\r\n\t    address payable highestBidder;\r\n\t    uint highestBid;\r\n        uint askingPrice;\r\n        uint minBidInterval;\r\n        uint highestBidTimestamp;\r\n    }   \r\n\r\n    // mapping storing the auction details for a land\r\n    mapping(uint => auction) Auction;\r\n\r\n    // constructor giving manager access to the deployer of the contract\r\n    constructor() {\r\n        manager = msg.sender;\r\n    }\r\n    \r\n    //This function creates a unique landId using its properties\r\n    function computeIdLand(string memory landAddress, string memory city, string memory country, string memory pincode) public pure returns(uint){    \r\n        return uint(keccak256(abi.encodePacked(landAddress, city, country, pincode)))%1000000000;\r\n    }\r\n\r\n    function getManagerAddress() public view returns(address){\r\n        return manager;\r\n    }\r\n\r\n    //This function registers land on DLaRS and can only be called by manager\r\n    function registerLand(string memory landAddress, string memory city, string memory country, \r\n    string memory pincode, address payable currentOwner) public onlyManager returns(uint256){\r\n        // Add a new entry in Land mapping with a new id\r\n        // Status of the land will be registered\r\n        // compute the landID through a deterministic hash function\r\n        uint landID = computeIdLand(landAddress, city, country, pincode);\r\n\r\n        // ensure the land is not already registered\r\n        require(!Lands[landID].isRegistered);\r\n\r\n        // add land details as specified by the manager\r\n        Lands[landID].landAddress = landAddress;\r\n        Lands[landID].city = city;\r\n        Lands[landID].country = country;\r\n        Lands[landID].pincode = pincode;\r\n        Lands[landID].currentOwner = currentOwner;\r\n        Lands[landID].status = LandStatus.registered;\r\n\r\n        // set isRegistered to be true indicating this land is already present in the mapping\r\n        Lands[landID].isRegistered = true;\r\n\r\n        // return the newly created landID for future reference\r\n        return landID;\r\n    }\r\n\r\n    //This function allows anyone to view the land details\r\n    function viewLandDetails(uint landId) public view returns(string memory, string memory, string memory, string memory, LandStatus){\r\n        // accessed by anyone\r\n        // returns all the details of a land\r\n        return (Lands[landId].city, \r\n                Lands[landId].country,\r\n                Lands[landId].landAddress,\r\n                Lands[landId].pincode,\r\n                Lands[landId].status\r\n                );\r\n    }\r\n    \r\n    //This function puts up the land for auction, can only be called by the current owner    \r\n    function putUpForAuction(uint landId, uint askingPrice, uint minBidInterval) public onlyOwner(landId){\r\n        // params:  askingPrice - initial price to start the auction\r\n        //          minBidInterval - minimum bid raise amount\r\n        // Changes land status to underBidding and land is up for auction.\r\n        // Add entry in auction\r\n\r\n        // ensures land is not already under bidding\r\n        require(Lands[landId].status == LandStatus.registered);\r\n\r\n        // ensure minimum bid raise amount is greater than zero\r\n        require(minBidInterval > 0);\r\n\r\n        Auction[landId].highestBidder = payable(address(0));\r\n        Auction[landId].highestBid = 0;\r\n        Auction[landId].askingPrice = askingPrice;\r\n        Auction[landId].minBidInterval = minBidInterval;\r\n        Auction[landId].highestBidTimestamp = block.timestamp;\r\n        Lands[landId].status = LandStatus.underBidding;\r\n    }\r\n\r\n    // function to remove a land from auction if there has not been any bid yet on that land\r\n    function deleteFromAuction(uint landId) public onlyOwner(landId){\r\n        // changes land status to registered only if there is no bid yet\r\n        // only accessible by current owner of land\r\n        // reset askingprice, minBidInterval, and landstatus\r\n        require(Lands[landId].status == LandStatus.underBidding);\r\n        require(Auction[landId].highestBid == 0);\r\n        Lands[landId].status = LandStatus.registered;\r\n        Auction[landId].askingPrice = 0;\r\n        Auction[landId].minBidInterval = 0;\r\n    }\r\n\r\n    // function to update askingprice and minbidinterval before any bid comes\r\n    function updateAuctionDetails(uint landId, uint newAskingPrice, uint newMinBidInterval) public onlyOwner(landId){\r\n        // changes asking price, minBidInterval in auction if there has not been a bid yet\r\n        // only accessible by current owner of land\r\n        require(Lands[landId].status == LandStatus.underBidding);\r\n        require(Auction[landId].highestBid == 0);\r\n\r\n        // ensure minBidInterval is greater than zero\r\n        require(newMinBidInterval > 0);\r\n        Auction[landId].askingPrice = newAskingPrice;\r\n        Auction[landId].minBidInterval = newMinBidInterval;\r\n    }\r\n    \r\n    // this function allows bidders to place a new bid on a piece of land\r\n    function placeBid(uint landId) public payable{\r\n        // params: pass auction Id and \r\n        // accessible by anyone except the seller\r\n        // check current bid > last bid\r\n        // bidder pay the whole bid amount\r\n        // highest bid is updated\r\n        // check if there was a last bidder, if yes revert amount of last bidder \r\n       \r\n        uint currentBid = msg.value;\r\n        require(msg.sender!=Lands[landId].currentOwner);\r\n        require(Auction[landId].highestBid + Auction[landId].minBidInterval < currentBid);\r\n        require(Auction[landId].askingPrice<=currentBid);\r\n        require(Lands[landId].status==LandStatus.underBidding);\r\n\r\n        // check for a previous bidder\r\n        if (Auction[landId].highestBid>0){\r\n            // in case of previous bidder, return their bid amount\r\n            Auction[landId].highestBidder.transfer(Auction[landId].highestBid);\r\n        }\r\n        // bidder pay the difference of new bid and last highest bid to the seller\r\n        uint toTransfer = currentBid-Auction[landId].highestBid;\r\n        payable(Lands[landId].currentOwner).transfer(toTransfer);\r\n\r\n        // current bidder is set as the highest bidder\r\n        Auction[landId].highestBidder = payable(msg.sender);\r\n        Auction[landId].highestBid = currentBid;\r\n        Auction[landId].highestBidTimestamp = block.timestamp;\r\n\r\n    }\r\n\r\n    //This function allows the current owner to view the auction details including highest bid, initial asking price, highest bid's timestamp\r\n    function viewAuctionDetails(uint landId) public view returns(uint,uint,uint){\r\n        // params: landId to identify a land uniquely\r\n        // returns highest bid value, initial asking price, last bid's timestamp for the current land\r\n        require(Lands[landId].status == LandStatus.underBidding);\r\n        return (Auction[landId].highestBid,\r\n                Auction[landId].askingPrice,\r\n                Auction[landId].highestBidTimestamp);\r\n    }\r\n\r\n    // this function allows the current highest bidder to stop the auction and take the ownership if it has been over 30 days that their bid has not been overtaken\r\n    function terminateAuction(uint landId) public {\r\n        // ensure function is only accessible by current highest bidder\r\n        require(Auction[landId].highestBidder == msg.sender);\r\n\r\n        // check the last bid was made atleast 30 days ago\r\n        require((Auction[landId].highestBidTimestamp+2592000) < block.timestamp);\r\n\r\n        // check the land is still under bidding process\r\n        require(Lands[landId].status == LandStatus.underBidding);\r\n\r\n        // take ownership and mark land as registered\r\n        Lands[landId].currentOwner = payable(msg.sender);\r\n        Lands[landId].status = LandStatus.registered;\r\n    }\r\n\r\n    //This function allows the current owner to approve the highest bid and proceed with the transfer of ownership\r\n    function acceptHighestBid(uint landId) public onlyOwner(landId){\r\n        // prompts the contract to stop bidding and complete transaction \r\n        // Will internally call the transfer ownership function\r\n\r\n        // ensure land is underbidding and last bid is atleast the asking price        \r\n        require(Lands[landId].status == LandStatus.underBidding);\r\n        require(Auction[landId].highestBid >= Auction[landId].askingPrice);\r\n        transferOwnership(landId, Auction[landId].highestBidder);\r\n        Lands[landId].status = LandStatus.registered;     \r\n    }\r\n\r\n    //This function transfers the ownership from current owner to the new owner\r\n    function transferOwnership(uint landId, address payable newOwnerId) private onlyOwner(landId){\r\n        // change owner\r\n        require(Lands[landId].currentOwner != newOwnerId);\r\n        Lands[landId].currentOwner = newOwnerId;\r\n    }\r\n}",
  "sourcePath": "C:\\Users\\saadf\\Documents\\GitHub\\DLaRS\\contracts\\DLaRS.sol",
  "compiler": {
    "name": "solc",
    "version": "0.8.10+commit.fc410830.Emscripten.clang"
  },
  "schemaVersion": "3.4.3",
  "updatedAt": "2021-12-14T00:32:39.893Z",
  "networkType": "ethereum",
  "devdoc": {
    "kind": "dev",
    "methods": {},
    "version": 1
  },
  "userdoc": {
    "kind": "user",
    "methods": {},
    "version": 1
  }
}